{
  "contractName": "Citizen",
  "abi": [
    {
      "constant": true,
      "inputs": [],
      "name": "typeContract",
      "outputs": [
        {
          "name": "",
          "type": "uint256"
        }
      ],
      "payable": false,
      "stateMutability": "view",
      "type": "function"
    },
    {
      "constant": true,
      "inputs": [],
      "name": "isDead",
      "outputs": [
        {
          "name": "",
          "type": "bool"
        }
      ],
      "payable": false,
      "stateMutability": "view",
      "type": "function"
    },
    {
      "constant": true,
      "inputs": [],
      "name": "isSleeping",
      "outputs": [
        {
          "name": "",
          "type": "bool"
        }
      ],
      "payable": false,
      "stateMutability": "view",
      "type": "function"
    },
    {
      "constant": true,
      "inputs": [],
      "name": "votes",
      "outputs": [
        {
          "name": "",
          "type": "uint256"
        }
      ],
      "payable": false,
      "stateMutability": "view",
      "type": "function"
    },
    {
      "inputs": [],
      "payable": false,
      "stateMutability": "nonpayable",
      "type": "constructor"
    },
    {
      "constant": false,
      "inputs": [],
      "name": "die",
      "outputs": [],
      "payable": false,
      "stateMutability": "nonpayable",
      "type": "function"
    },
    {
      "constant": false,
      "inputs": [],
      "name": "heal",
      "outputs": [],
      "payable": false,
      "stateMutability": "nonpayable",
      "type": "function"
    },
    {
      "constant": false,
      "inputs": [],
      "name": "addVote",
      "outputs": [],
      "payable": false,
      "stateMutability": "nonpayable",
      "type": "function"
    },
    {
      "constant": false,
      "inputs": [],
      "name": "sleep",
      "outputs": [],
      "payable": false,
      "stateMutability": "nonpayable",
      "type": "function"
    },
    {
      "constant": false,
      "inputs": [],
      "name": "stopSleep",
      "outputs": [],
      "payable": false,
      "stateMutability": "nonpayable",
      "type": "function"
    },
    {
      "constant": true,
      "inputs": [],
      "name": "getVotes",
      "outputs": [
        {
          "name": "",
          "type": "uint256"
        }
      ],
      "payable": false,
      "stateMutability": "view",
      "type": "function"
    },
    {
      "constant": false,
      "inputs": [
        {
          "name": "addr",
          "type": "address"
        },
        {
          "name": "typeContr",
          "type": "uint256"
        }
      ],
      "name": "vote",
      "outputs": [],
      "payable": false,
      "stateMutability": "nonpayable",
      "type": "function"
    }
  ],
  "bytecode": "0x608060405234801561001057600080fd5b5060008060006101000a81548160ff0219169083151502179055506000600260006101000a81548160ff02191690831515021790555060006001819055506105f38061005d6000396000f3006080604052600436106100af576000357c0100000000000000000000000000000000000000000000000000000000900463ffffffff1680630434fe0b146100b45780630dc96015146100cb578063133a473e146100f657806335f469941461010d5780634016644614610124578063487edff21461013b5780635f74bbde1461016657806399baa10c146101b3578063b5e3909e146101e2578063cb063852146101f9578063e168c3ec14610228575b600080fd5b3480156100c057600080fd5b506100c9610253565b005b3480156100d757600080fd5b506100e061026f565b6040518082815260200191505060405180910390f35b34801561010257600080fd5b5061010b610279565b005b34801561011957600080fd5b50610122610296565b005b34801561013057600080fd5b506101396102b2565b005b34801561014757600080fd5b506101506102cf565b6040518082815260200191505060405180910390f35b34801561017257600080fd5b506101b1600480360381019080803573ffffffffffffffffffffffffffffffffffffffff169060200190929190803590602001909291905050506102d4565b005b3480156101bf57600080fd5b506101c861058a565b604051808215151515815260200191505060405180910390f35b3480156101ee57600080fd5b506101f761059c565b005b34801561020557600080fd5b5061020e6105ae565b604051808215151515815260200191505060405180910390f35b34801561023457600080fd5b5061023d6105c1565b6040518082815260200191505060405180910390f35b60008060006101000a81548160ff021916908315150217905550565b6000600154905090565b6001600260006101000a81548160ff021916908315150217905550565b60016000806101000a81548160ff021916908315150217905550565b6000600260006101000a81548160ff021916908315150217905550565b600081565b600081141561035e578173ffffffffffffffffffffffffffffffffffffffff1663b5e3909e6040518163ffffffff167c0100000000000000000000000000000000000000000000000000000000028152600401600060405180830381600087803b15801561034157600080fd5b505af1158015610355573d6000803e3d6000fd5b50505050610586565b60018114156103e8578173ffffffffffffffffffffffffffffffffffffffff1663b5e3909e6040518163ffffffff167c0100000000000000000000000000000000000000000000000000000000028152600401600060405180830381600087803b1580156103cb57600080fd5b505af11580156103df573d6000803e3d6000fd5b50505050610585565b6002811415610472578173ffffffffffffffffffffffffffffffffffffffff1663b5e3909e6040518163ffffffff167c0100000000000000000000000000000000000000000000000000000000028152600401600060405180830381600087803b15801561045557600080fd5b505af1158015610469573d6000803e3d6000fd5b50505050610584565b60038114156104fc578173ffffffffffffffffffffffffffffffffffffffff1663b5e3909e6040518163ffffffff167c0100000000000000000000000000000000000000000000000000000000028152600401600060405180830381600087803b1580156104df57600080fd5b505af11580156104f3573d6000803e3d6000fd5b50505050610583565b6004811415610582578173ffffffffffffffffffffffffffffffffffffffff1663b5e3909e6040518163ffffffff167c0100000000000000000000000000000000000000000000000000000000028152600401600060405180830381600087803b15801561056957600080fd5b505af115801561057d573d6000803e3d6000fd5b505050505b5b5b5b5b5050565b6000809054906101000a900460ff1681565b60018060008282540192505081905550565b600260009054906101000a900460ff1681565b600154815600a165627a7a723058200ce5c95159a8149362364d3a69e1d117557a84ce41c343eb946e8bc8323361170029",
  "source": "pragma solidity ^0.4.22;\n\nimport \"./doctor.sol\";\nimport \"./kommisar.sol\";\nimport \"./mafia.sol\";\nimport \"./maniac.sol\";\n\ncontract Citizen {\n  bool public isDead;\n  uint public votes;\n  bool public isSleeping;\n\n  uint public constant typeContract = 0; // citizen = 0, doctor = 1, kommisar = 2, mafia = 3, maniac = 4;\n  constructor() public {\n    isDead = false;\n    isSleeping = false;\n    votes = 0;\n  }\n  function die() {\n    isDead = true;\n  }\n  function heal() {\n    isDead = false;\n  }\n\n  function addVote() {\n    votes += 1;\n  }\n\n  function sleep() {\n    isSleeping = true;\n  }\n\n  function stopSleep() {\n    isSleeping = false;\n  }\n\n  function getVotes() public view returns (uint) {\n    return votes;\n  }\n\n  function vote(address addr, uint typeContr) {\n    if (typeContr == 0){\n       Citizen(addr).addVote();\n    }\n    else if (typeContr == 1){\n       Doctor(addr).addVote();//remake\n    }\n\n    else if (typeContr == 2){\n       Kommisar(addr).addVote();\n\n    }\n    else if (typeContr == 3){\n       Mafia(addr).addVote();//remake\n    }\n    else if (typeContr == 4){\n       Maniac(addr).addVote();//remake\n    }\n\n  }\n}\n",
  "sourcePath": "/Users/nikitazaytsev/Projects/blockchain_mafia/contracts/citizen.sol",
  "compiler": {
    "name": "solc",
    "version": "0.4.24+commit.e67f0147.Emscripten.clang"
  },
  "schemaVersion": "2.0.1",
  "updatedAt": "2018-07-17T08:58:42.647Z"
}