{
  "contractName": "Doctor",
  "abi": [
    {
      "constant": true,
      "inputs": [],
      "name": "typeContract",
      "outputs": [
        {
          "name": "",
          "type": "uint256"
        }
      ],
      "payable": false,
      "stateMutability": "view",
      "type": "function"
    },
    {
      "constant": true,
      "inputs": [],
      "name": "isDead",
      "outputs": [
        {
          "name": "",
          "type": "bool"
        }
      ],
      "payable": false,
      "stateMutability": "view",
      "type": "function"
    },
    {
      "constant": true,
      "inputs": [],
      "name": "votes",
      "outputs": [
        {
          "name": "",
          "type": "uint256"
        }
      ],
      "payable": false,
      "stateMutability": "view",
      "type": "function"
    },
    {
      "inputs": [],
      "payable": false,
      "stateMutability": "nonpayable",
      "type": "constructor"
    },
    {
      "constant": false,
      "inputs": [],
      "name": "die",
      "outputs": [],
      "payable": false,
      "stateMutability": "nonpayable",
      "type": "function"
    },
    {
      "constant": false,
      "inputs": [],
      "name": "heal",
      "outputs": [],
      "payable": false,
      "stateMutability": "nonpayable",
      "type": "function"
    },
    {
      "constant": false,
      "inputs": [],
      "name": "addVote",
      "outputs": [],
      "payable": false,
      "stateMutability": "nonpayable",
      "type": "function"
    },
    {
      "constant": false,
      "inputs": [],
      "name": "sleep",
      "outputs": [],
      "payable": false,
      "stateMutability": "nonpayable",
      "type": "function"
    },
    {
      "constant": false,
      "inputs": [],
      "name": "stopSleep",
      "outputs": [],
      "payable": false,
      "stateMutability": "nonpayable",
      "type": "function"
    },
    {
      "constant": false,
      "inputs": [],
      "name": "getVotes",
      "outputs": [
        {
          "name": "",
          "type": "uint256"
        }
      ],
      "payable": false,
      "stateMutability": "nonpayable",
      "type": "function"
    },
    {
      "constant": false,
      "inputs": [
        {
          "name": "addr",
          "type": "address"
        },
        {
          "name": "typeContr",
          "type": "uint256"
        }
      ],
      "name": "cure",
      "outputs": [],
      "payable": false,
      "stateMutability": "nonpayable",
      "type": "function"
    },
    {
      "constant": false,
      "inputs": [
        {
          "name": "addr",
          "type": "address"
        },
        {
          "name": "typeContr",
          "type": "uint256"
        }
      ],
      "name": "vote",
      "outputs": [],
      "payable": false,
      "stateMutability": "nonpayable",
      "type": "function"
    }
  ],
  "bytecode": "0x608060405234801561001057600080fd5b5060008060006101000a81548160ff0219169083151502179055506000600260006101000a81548160ff02191690831515021790555060006001819055506108b48061005d6000396000f3006080604052600436106100af576000357c0100000000000000000000000000000000000000000000000000000000900463ffffffff1680630434fe0b146100b45780630dc96015146100cb578063133a473e146100f6578063300260861461010d57806335f469941461015a5780634016644614610171578063487edff2146101885780635f74bbde146101b357806399baa10c14610200578063b5e3909e1461022f578063e168c3ec14610246575b600080fd5b3480156100c057600080fd5b506100c9610271565b005b3480156100d757600080fd5b506100e061028d565b6040518082815260200191505060405180910390f35b34801561010257600080fd5b5061010b610297565b005b34801561011957600080fd5b50610158600480360381019080803573ffffffffffffffffffffffffffffffffffffffff169060200190929190803590602001909291905050506102b4565b005b34801561016657600080fd5b5061016f61056a565b005b34801561017d57600080fd5b50610186610586565b005b34801561019457600080fd5b5061019d6105a3565b6040518082815260200191505060405180910390f35b3480156101bf57600080fd5b506101fe600480360381019080803573ffffffffffffffffffffffffffffffffffffffff169060200190929190803590602001909291905050506105a8565b005b34801561020c57600080fd5b5061021561085e565b604051808215151515815260200191505060405180910390f35b34801561023b57600080fd5b50610244610870565b005b34801561025257600080fd5b5061025b610882565b6040518082815260200191505060405180910390f35b60008060006101000a81548160ff021916908315150217905550565b6000600154905090565b6001600260006101000a81548160ff021916908315150217905550565b600081141561033e578173ffffffffffffffffffffffffffffffffffffffff16630434fe0b6040518163ffffffff167c0100000000000000000000000000000000000000000000000000000000028152600401600060405180830381600087803b15801561032157600080fd5b505af1158015610335573d6000803e3d6000fd5b50505050610566565b60018114156103c8578173ffffffffffffffffffffffffffffffffffffffff16630434fe0b6040518163ffffffff167c0100000000000000000000000000000000000000000000000000000000028152600401600060405180830381600087803b1580156103ab57600080fd5b505af11580156103bf573d6000803e3d6000fd5b50505050610565565b6002811415610452578173ffffffffffffffffffffffffffffffffffffffff16630434fe0b6040518163ffffffff167c0100000000000000000000000000000000000000000000000000000000028152600401600060405180830381600087803b15801561043557600080fd5b505af1158015610449573d6000803e3d6000fd5b50505050610564565b60038114156104dc578173ffffffffffffffffffffffffffffffffffffffff16630434fe0b6040518163ffffffff167c0100000000000000000000000000000000000000000000000000000000028152600401600060405180830381600087803b1580156104bf57600080fd5b505af11580156104d3573d6000803e3d6000fd5b50505050610563565b6004811415610562578173ffffffffffffffffffffffffffffffffffffffff16630434fe0b6040518163ffffffff167c0100000000000000000000000000000000000000000000000000000000028152600401600060405180830381600087803b15801561054957600080fd5b505af115801561055d573d6000803e3d6000fd5b505050505b5b5b5b5b5050565b60016000806101000a81548160ff021916908315150217905550565b6000600260006101000a81548160ff021916908315150217905550565b600181565b6000811415610632578173ffffffffffffffffffffffffffffffffffffffff1663b5e3909e6040518163ffffffff167c0100000000000000000000000000000000000000000000000000000000028152600401600060405180830381600087803b15801561061557600080fd5b505af1158015610629573d6000803e3d6000fd5b5050505061085a565b60018114156106bc578173ffffffffffffffffffffffffffffffffffffffff1663b5e3909e6040518163ffffffff167c0100000000000000000000000000000000000000000000000000000000028152600401600060405180830381600087803b15801561069f57600080fd5b505af11580156106b3573d6000803e3d6000fd5b50505050610859565b6002811415610746578173ffffffffffffffffffffffffffffffffffffffff1663b5e3909e6040518163ffffffff167c0100000000000000000000000000000000000000000000000000000000028152600401600060405180830381600087803b15801561072957600080fd5b505af115801561073d573d6000803e3d6000fd5b50505050610858565b60038114156107d0578173ffffffffffffffffffffffffffffffffffffffff1663b5e3909e6040518163ffffffff167c0100000000000000000000000000000000000000000000000000000000028152600401600060405180830381600087803b1580156107b357600080fd5b505af11580156107c7573d6000803e3d6000fd5b50505050610857565b6004811415610856578173ffffffffffffffffffffffffffffffffffffffff1663b5e3909e6040518163ffffffff167c0100000000000000000000000000000000000000000000000000000000028152600401600060405180830381600087803b15801561083d57600080fd5b505af1158015610851573d6000803e3d6000fd5b505050505b5b5b5b5b5050565b6000809054906101000a900460ff1681565b60018060008282540192505081905550565b600154815600a165627a7a7230582020d302db3a62aee5650de631dd81ed2993f65d914f00fa5854525cf8f6868de20029",
  "source": "pragma solidity ^0.4.22;\n\nimport \"./citizen.sol\";\nimport \"./kommisar.sol\";\nimport \"./mafia.sol\";\nimport \"./maniac.sol\";\n\ncontract Doctor {\n  bool public isDead;\n  uint public votes;\n  bool private isSleeping;\n\n  uint public constant typeContract = 1; // citizen = 0, doctor = 1, kommisar = 2, mafia = 3, maniac = 4;\n\n  constructor() public {\n    isDead = false;\n    isSleeping = false;\n    votes = 0;\n  }\n  function die() {\n    isDead = true;\n  }\n  function heal() {\n    isDead = false;\n  }\n\n  function addVote() {\n    votes += 1;\n  }\n\n  function sleep() {\n    isSleeping = true;\n  }\n\n  function stopSleep() {\n    isSleeping = false;\n  }\n\n  function getVotes() returns (uint) {\n    return votes;\n  }\n\n  function cure(address addr, uint typeContr) {\n    if (typeContr == 0){\n       Citizen(addr).heal();\n    }\n    else if (typeContr == 1){\n       Doctor(addr).heal();\n    }\n    else if (typeContr == 2){\n       Kommisar(addr).heal();\n    }\n    else if (typeContr == 3){\n       Mafia(addr).heal();\n    }\n    else if (typeContr == 4){\n       Maniac(addr).heal();\n    }\n  }\n\n  function vote(address addr, uint typeContr) {\n    if (typeContr == 0){\n       Citizen(addr).addVote();\n    }\n    else if (typeContr == 1){\n       Doctor(addr).addVote();//remake\n    }\n    else if (typeContr == 2){\n       Kommisar(addr).addVote();\n    }\n    else if (typeContr == 3){\n       Mafia(addr).addVote();//remake\n    }\n    else if (typeContr == 4){\n       Maniac(addr).addVote();//remake\n    }\n\n  }\n}\n",
  "sourcePath": "/Users/nikitazaytsev/Projects/blockchain_mafia/contracts/doctor.sol",
  "compiler": {
    "name": "solc",
    "version": "0.4.24+commit.e67f0147.Emscripten.clang"
  },
  "schemaVersion": "2.0.1",
  "updatedAt": "2018-07-16T10:18:02.791Z"
}