{
  "contractName": "Doctor",
  "abi": [
    {
      "constant": true,
      "inputs": [],
      "name": "typeContract",
      "outputs": [
        {
          "name": "",
          "type": "uint256"
        }
      ],
      "payable": false,
      "stateMutability": "view",
      "type": "function"
    },
    {
      "constant": true,
      "inputs": [],
      "name": "isDead",
      "outputs": [
        {
          "name": "",
          "type": "bool"
        }
      ],
      "payable": false,
      "stateMutability": "view",
      "type": "function"
    },
    {
      "constant": true,
      "inputs": [],
      "name": "isSleeping",
      "outputs": [
        {
          "name": "",
          "type": "bool"
        }
      ],
      "payable": false,
      "stateMutability": "view",
      "type": "function"
    },
    {
      "constant": true,
      "inputs": [],
      "name": "votes",
      "outputs": [
        {
          "name": "",
          "type": "uint256"
        }
      ],
      "payable": false,
      "stateMutability": "view",
      "type": "function"
    },
    {
      "inputs": [],
      "payable": false,
      "stateMutability": "nonpayable",
      "type": "constructor"
    },
    {
      "constant": false,
      "inputs": [],
      "name": "die",
      "outputs": [],
      "payable": false,
      "stateMutability": "nonpayable",
      "type": "function"
    },
    {
      "constant": false,
      "inputs": [],
      "name": "heal",
      "outputs": [],
      "payable": false,
      "stateMutability": "nonpayable",
      "type": "function"
    },
    {
      "constant": false,
      "inputs": [],
      "name": "addVote",
      "outputs": [],
      "payable": false,
      "stateMutability": "nonpayable",
      "type": "function"
    },
    {
      "constant": false,
      "inputs": [],
      "name": "sleep",
      "outputs": [],
      "payable": false,
      "stateMutability": "nonpayable",
      "type": "function"
    },
    {
      "constant": false,
      "inputs": [],
      "name": "stopSleep",
      "outputs": [],
      "payable": false,
      "stateMutability": "nonpayable",
      "type": "function"
    },
    {
      "constant": true,
      "inputs": [],
      "name": "getVotes",
      "outputs": [
        {
          "name": "",
          "type": "uint256"
        }
      ],
      "payable": false,
      "stateMutability": "view",
      "type": "function"
    },
    {
      "constant": false,
      "inputs": [
        {
          "name": "addr",
          "type": "address"
        },
        {
          "name": "typeContr",
          "type": "uint256"
        }
      ],
      "name": "cure",
      "outputs": [],
      "payable": false,
      "stateMutability": "nonpayable",
      "type": "function"
    },
    {
      "constant": false,
      "inputs": [
        {
          "name": "addr",
          "type": "address"
        },
        {
          "name": "typeContr",
          "type": "uint256"
        }
      ],
      "name": "vote",
      "outputs": [],
      "payable": false,
      "stateMutability": "nonpayable",
      "type": "function"
    }
  ],
  "bytecode": "0x608060405234801561001057600080fd5b5060008060006101000a81548160ff0219169083151502179055506000600260006101000a81548160ff02191690831515021790555060006001819055506109018061005d6000396000f3006080604052600436106100ba576000357c0100000000000000000000000000000000000000000000000000000000900463ffffffff1680630434fe0b146100bf5780630dc96015146100d6578063133a473e14610101578063300260861461011857806335f4699414610165578063401664461461017c578063487edff2146101935780635f74bbde146101be57806399baa10c1461020b578063b5e3909e1461023a578063cb06385214610251578063e168c3ec14610280575b600080fd5b3480156100cb57600080fd5b506100d46102ab565b005b3480156100e257600080fd5b506100eb6102c7565b6040518082815260200191505060405180910390f35b34801561010d57600080fd5b506101166102d1565b005b34801561012457600080fd5b50610163600480360381019080803573ffffffffffffffffffffffffffffffffffffffff169060200190929190803590602001909291905050506102ee565b005b34801561017157600080fd5b5061017a6105a4565b005b34801561018857600080fd5b506101916105c0565b005b34801561019f57600080fd5b506101a86105dd565b6040518082815260200191505060405180910390f35b3480156101ca57600080fd5b50610209600480360381019080803573ffffffffffffffffffffffffffffffffffffffff169060200190929190803590602001909291905050506105e2565b005b34801561021757600080fd5b50610220610898565b604051808215151515815260200191505060405180910390f35b34801561024657600080fd5b5061024f6108aa565b005b34801561025d57600080fd5b506102666108bc565b604051808215151515815260200191505060405180910390f35b34801561028c57600080fd5b506102956108cf565b6040518082815260200191505060405180910390f35b60008060006101000a81548160ff021916908315150217905550565b6000600154905090565b6001600260006101000a81548160ff021916908315150217905550565b6000811415610378578173ffffffffffffffffffffffffffffffffffffffff16630434fe0b6040518163ffffffff167c0100000000000000000000000000000000000000000000000000000000028152600401600060405180830381600087803b15801561035b57600080fd5b505af115801561036f573d6000803e3d6000fd5b505050506105a0565b6001811415610402578173ffffffffffffffffffffffffffffffffffffffff16630434fe0b6040518163ffffffff167c0100000000000000000000000000000000000000000000000000000000028152600401600060405180830381600087803b1580156103e557600080fd5b505af11580156103f9573d6000803e3d6000fd5b5050505061059f565b600281141561048c578173ffffffffffffffffffffffffffffffffffffffff16630434fe0b6040518163ffffffff167c0100000000000000000000000000000000000000000000000000000000028152600401600060405180830381600087803b15801561046f57600080fd5b505af1158015610483573d6000803e3d6000fd5b5050505061059e565b6003811415610516578173ffffffffffffffffffffffffffffffffffffffff16630434fe0b6040518163ffffffff167c0100000000000000000000000000000000000000000000000000000000028152600401600060405180830381600087803b1580156104f957600080fd5b505af115801561050d573d6000803e3d6000fd5b5050505061059d565b600481141561059c578173ffffffffffffffffffffffffffffffffffffffff16630434fe0b6040518163ffffffff167c0100000000000000000000000000000000000000000000000000000000028152600401600060405180830381600087803b15801561058357600080fd5b505af1158015610597573d6000803e3d6000fd5b505050505b5b5b5b5b5050565b60016000806101000a81548160ff021916908315150217905550565b6000600260006101000a81548160ff021916908315150217905550565b600181565b600081141561066c578173ffffffffffffffffffffffffffffffffffffffff1663b5e3909e6040518163ffffffff167c0100000000000000000000000000000000000000000000000000000000028152600401600060405180830381600087803b15801561064f57600080fd5b505af1158015610663573d6000803e3d6000fd5b50505050610894565b60018114156106f6578173ffffffffffffffffffffffffffffffffffffffff1663b5e3909e6040518163ffffffff167c0100000000000000000000000000000000000000000000000000000000028152600401600060405180830381600087803b1580156106d957600080fd5b505af11580156106ed573d6000803e3d6000fd5b50505050610893565b6002811415610780578173ffffffffffffffffffffffffffffffffffffffff1663b5e3909e6040518163ffffffff167c0100000000000000000000000000000000000000000000000000000000028152600401600060405180830381600087803b15801561076357600080fd5b505af1158015610777573d6000803e3d6000fd5b50505050610892565b600381141561080a578173ffffffffffffffffffffffffffffffffffffffff1663b5e3909e6040518163ffffffff167c0100000000000000000000000000000000000000000000000000000000028152600401600060405180830381600087803b1580156107ed57600080fd5b505af1158015610801573d6000803e3d6000fd5b50505050610891565b6004811415610890578173ffffffffffffffffffffffffffffffffffffffff1663b5e3909e6040518163ffffffff167c0100000000000000000000000000000000000000000000000000000000028152600401600060405180830381600087803b15801561087757600080fd5b505af115801561088b573d6000803e3d6000fd5b505050505b5b5b5b5b5050565b6000809054906101000a900460ff1681565b60018060008282540192505081905550565b600260009054906101000a900460ff1681565b600154815600a165627a7a72305820287fda5bab20cf3169973c03ab30e3be237164c025f2b51318e144e3f80e06ab0029",
  "source": "pragma solidity ^0.4.22;\n\nimport \"./citizen.sol\";\nimport \"./kommisar.sol\";\nimport \"./mafia.sol\";\nimport \"./maniac.sol\";\n\ncontract Doctor {\n  bool public isDead;\n  uint public votes;\n  bool public isSleeping;\n\n  uint public constant typeContract = 1; // citizen = 0, doctor = 1, kommisar = 2, mafia = 3, maniac = 4;\n\n  constructor() public {\n    isDead = false;\n    isSleeping = false;\n    votes = 0;\n  }\n  function die() {\n    isDead = true;\n  }\n  function heal() {\n    isDead = false;\n  }\n\n  function addVote() {\n    votes += 1;\n  }\n\n  function sleep() {\n    isSleeping = true;\n  }\n\n  function stopSleep() {\n    isSleeping = false;\n  }\n\n  function getVotes() public view returns (uint) {\n    return votes;\n  }\n\n  function cure(address addr, uint typeContr) {\n    if (typeContr == 0){\n       Citizen(addr).heal();\n    }\n    else if (typeContr == 1){\n       Doctor(addr).heal();\n    }\n    else if (typeContr == 2){\n       Kommisar(addr).heal();\n    }\n    else if (typeContr == 3){\n       Mafia(addr).heal();\n    }\n    else if (typeContr == 4){\n       Maniac(addr).heal();\n    }\n  }\n\n  function vote(address addr, uint typeContr) {\n    if (typeContr == 0){\n       Citizen(addr).addVote();\n    }\n    else if (typeContr == 1){\n       Doctor(addr).addVote();//remake\n    }\n    else if (typeContr == 2){\n       Kommisar(addr).addVote();\n    }\n    else if (typeContr == 3){\n       Mafia(addr).addVote();//remake\n    }\n    else if (typeContr == 4){\n       Maniac(addr).addVote();//remake\n    }\n\n  }\n}\n",
  "sourcePath": "/Users/nikitazaytsev/Projects/blockchain_mafia/contracts/doctor.sol",
  "compiler": {
    "name": "solc",
    "version": "0.4.24+commit.e67f0147.Emscripten.clang"
  },
  "schemaVersion": "2.0.1",
  "updatedAt": "2018-07-17T09:21:41.886Z"
}