{
  "contractName": "GameSys",
  "abi": [
    {
      "constant": true,
      "inputs": [],
      "name": "citizen5",
      "outputs": [
        {
          "name": "",
          "type": "address"
        }
      ],
      "payable": false,
      "stateMutability": "view",
      "type": "function"
    },
    {
      "constant": true,
      "inputs": [],
      "name": "citizen2",
      "outputs": [
        {
          "name": "",
          "type": "address"
        }
      ],
      "payable": false,
      "stateMutability": "view",
      "type": "function"
    },
    {
      "constant": true,
      "inputs": [],
      "name": "kommisar_count",
      "outputs": [
        {
          "name": "",
          "type": "uint256"
        }
      ],
      "payable": false,
      "stateMutability": "view",
      "type": "function"
    },
    {
      "constant": true,
      "inputs": [],
      "name": "citizen1",
      "outputs": [
        {
          "name": "",
          "type": "address"
        }
      ],
      "payable": false,
      "stateMutability": "view",
      "type": "function"
    },
    {
      "constant": true,
      "inputs": [],
      "name": "turns",
      "outputs": [
        {
          "name": "",
          "type": "uint256"
        }
      ],
      "payable": false,
      "stateMutability": "view",
      "type": "function"
    },
    {
      "constant": true,
      "inputs": [],
      "name": "maxPlayers",
      "outputs": [
        {
          "name": "",
          "type": "uint256"
        }
      ],
      "payable": false,
      "stateMutability": "view",
      "type": "function"
    },
    {
      "constant": true,
      "inputs": [],
      "name": "citizen3",
      "outputs": [
        {
          "name": "",
          "type": "address"
        }
      ],
      "payable": false,
      "stateMutability": "view",
      "type": "function"
    },
    {
      "constant": true,
      "inputs": [],
      "name": "mafia2",
      "outputs": [
        {
          "name": "",
          "type": "address"
        }
      ],
      "payable": false,
      "stateMutability": "view",
      "type": "function"
    },
    {
      "constant": true,
      "inputs": [],
      "name": "doctor_count",
      "outputs": [
        {
          "name": "",
          "type": "uint256"
        }
      ],
      "payable": false,
      "stateMutability": "view",
      "type": "function"
    },
    {
      "constant": true,
      "inputs": [],
      "name": "citizen_count",
      "outputs": [
        {
          "name": "",
          "type": "uint256"
        }
      ],
      "payable": false,
      "stateMutability": "view",
      "type": "function"
    },
    {
      "constant": true,
      "inputs": [],
      "name": "citizen4",
      "outputs": [
        {
          "name": "",
          "type": "address"
        }
      ],
      "payable": false,
      "stateMutability": "view",
      "type": "function"
    },
    {
      "constant": true,
      "inputs": [],
      "name": "maniac1",
      "outputs": [
        {
          "name": "",
          "type": "address"
        }
      ],
      "payable": false,
      "stateMutability": "view",
      "type": "function"
    },
    {
      "constant": true,
      "inputs": [],
      "name": "kommisar1",
      "outputs": [
        {
          "name": "",
          "type": "address"
        }
      ],
      "payable": false,
      "stateMutability": "view",
      "type": "function"
    },
    {
      "constant": true,
      "inputs": [],
      "name": "doctor1",
      "outputs": [
        {
          "name": "",
          "type": "address"
        }
      ],
      "payable": false,
      "stateMutability": "view",
      "type": "function"
    },
    {
      "constant": true,
      "inputs": [],
      "name": "mafia_count",
      "outputs": [
        {
          "name": "",
          "type": "uint256"
        }
      ],
      "payable": false,
      "stateMutability": "view",
      "type": "function"
    },
    {
      "constant": true,
      "inputs": [],
      "name": "maniac_count",
      "outputs": [
        {
          "name": "",
          "type": "uint256"
        }
      ],
      "payable": false,
      "stateMutability": "view",
      "type": "function"
    },
    {
      "constant": true,
      "inputs": [],
      "name": "mafia1",
      "outputs": [
        {
          "name": "",
          "type": "address"
        }
      ],
      "payable": false,
      "stateMutability": "view",
      "type": "function"
    },
    {
      "inputs": [],
      "payable": false,
      "stateMutability": "nonpayable",
      "type": "constructor"
    },
    {
      "constant": false,
      "inputs": [],
      "name": "initGame",
      "outputs": [],
      "payable": false,
      "stateMutability": "nonpayable",
      "type": "function"
    },
    {
      "constant": false,
      "inputs": [],
      "name": "initPlayers",
      "outputs": [],
      "payable": false,
      "stateMutability": "nonpayable",
      "type": "function"
    },
    {
      "constant": false,
      "inputs": [
        {
          "name": "player",
          "type": "address"
        }
      ],
      "name": "addPlayer",
      "outputs": [],
      "payable": false,
      "stateMutability": "nonpayable",
      "type": "function"
    }
  ],
  "bytecode": "0x60806040526000600c556000600d556000600e556000600f5560006010556000601155600060125534801561003357600080fd5b5061166e806100436000396000f300608060405260043610610112576000357c0100000000000000000000000000000000000000000000000000000000900463ffffffff168063048aaa891461011757806305fbf4f81461016e5780630e92caf8146101c55780631cadd93e146101f057806326f246f01461020757806332eb25641461025e578063401c0347146102755780634c2412a2146102a057806367eb9019146102cb578063793c0826146103225780639e458a9314610379578063a550dcc5146103a4578063b1275f9a146103cf578063b67676d814610412578063bafbbc5614610469578063c06fe43d146104c0578063c4473a1414610517578063e1c2f4361461056e578063e315dd7114610599578063f0af6ab0146105c4575b600080fd5b34801561012357600080fd5b5061012c61061b565b604051808273ffffffffffffffffffffffffffffffffffffffff1673ffffffffffffffffffffffffffffffffffffffff16815260200191505060405180910390f35b34801561017a57600080fd5b50610183610641565b604051808273ffffffffffffffffffffffffffffffffffffffff1673ffffffffffffffffffffffffffffffffffffffff16815260200191505060405180910390f35b3480156101d157600080fd5b506101da610667565b6040518082815260200191505060405180910390f35b3480156101fc57600080fd5b5061020561066d565b005b34801561021357600080fd5b5061021c610cd1565b604051808273ffffffffffffffffffffffffffffffffffffffff1673ffffffffffffffffffffffffffffffffffffffff16815260200191505060405180910390f35b34801561026a57600080fd5b50610273610cf6565b005b34801561028157600080fd5b5061028a611323565b6040518082815260200191505060405180910390f35b3480156102ac57600080fd5b506102b5611329565b6040518082815260200191505060405180910390f35b3480156102d757600080fd5b506102e061132f565b604051808273ffffffffffffffffffffffffffffffffffffffff1673ffffffffffffffffffffffffffffffffffffffff16815260200191505060405180910390f35b34801561032e57600080fd5b50610337611355565b604051808273ffffffffffffffffffffffffffffffffffffffff1673ffffffffffffffffffffffffffffffffffffffff16815260200191505060405180910390f35b34801561038557600080fd5b5061038e61137b565b6040518082815260200191505060405180910390f35b3480156103b057600080fd5b506103b9611381565b6040518082815260200191505060405180910390f35b3480156103db57600080fd5b50610410600480360381019080803573ffffffffffffffffffffffffffffffffffffffff169060200190929190505050611387565b005b34801561041e57600080fd5b50610427611578565b604051808273ffffffffffffffffffffffffffffffffffffffff1673ffffffffffffffffffffffffffffffffffffffff16815260200191505060405180910390f35b34801561047557600080fd5b5061047e61159e565b604051808273ffffffffffffffffffffffffffffffffffffffff1673ffffffffffffffffffffffffffffffffffffffff16815260200191505060405180910390f35b3480156104cc57600080fd5b506104d56115c4565b604051808273ffffffffffffffffffffffffffffffffffffffff1673ffffffffffffffffffffffffffffffffffffffff16815260200191505060405180910390f35b34801561052357600080fd5b5061052c6115ea565b604051808273ffffffffffffffffffffffffffffffffffffffff1673ffffffffffffffffffffffffffffffffffffffff16815260200191505060405180910390f35b34801561057a57600080fd5b50610583611610565b6040518082815260200191505060405180910390f35b3480156105a557600080fd5b506105ae611616565b6040518082815260200191505060405180910390f35b3480156105d057600080fd5b506105d961161c565b604051808273ffffffffffffffffffffffffffffffffffffffff1673ffffffffffffffffffffffffffffffffffffffff16815260200191505060405180910390f35b600460009054906101000a900473ffffffffffffffffffffffffffffffffffffffff1681565b600160009054906101000a900473ffffffffffffffffffffffffffffffffffffffff1681565b600d5481565b60008090505b600a811015610cce576000600b8281548110151561068d57fe5b906000526020600020015414156109a5576005601154141561073857600a818154811015156106b857fe5b9060005260206000200160009054906101000a900473ffffffffffffffffffffffffffffffffffffffff166000806101000a81548173ffffffffffffffffffffffffffffffffffffffff021916908373ffffffffffffffffffffffffffffffffffffffff16021790555060016011600082825403925050819055506109a4565b600460115414156107d357600a8181548110151561075257fe5b9060005260206000200160009054906101000a900473ffffffffffffffffffffffffffffffffffffffff16600160006101000a81548173ffffffffffffffffffffffffffffffffffffffff021916908373ffffffffffffffffffffffffffffffffffffffff16021790555060016011600082825403925050819055506109a3565b6003601154141561086e57600a818154811015156107ed57fe5b9060005260206000200160009054906101000a900473ffffffffffffffffffffffffffffffffffffffff16600260006101000a81548173ffffffffffffffffffffffffffffffffffffffff021916908373ffffffffffffffffffffffffffffffffffffffff16021790555060016011600082825403925050819055506109a2565b6002601154141561090957600a8181548110151561088857fe5b9060005260206000200160009054906101000a900473ffffffffffffffffffffffffffffffffffffffff16600360006101000a81548173ffffffffffffffffffffffffffffffffffffffff021916908373ffffffffffffffffffffffffffffffffffffffff16021790555060016011600082825403925050819055506109a1565b600160115414156109a057600a8181548110151561092357fe5b9060005260206000200160009054906101000a900473ffffffffffffffffffffffffffffffffffffffff16600460006101000a81548173ffffffffffffffffffffffffffffffffffffffff021916908373ffffffffffffffffffffffffffffffffffffffff16021790555060016011600082825403925050819055505b5b5b5b5b5b6001600b828154811015156109b657fe5b90600052602060002001541415610a4257600a818154811015156109d657fe5b9060005260206000200160009054906101000a900473ffffffffffffffffffffffffffffffffffffffff16600560006101000a81548173ffffffffffffffffffffffffffffffffffffffff021916908373ffffffffffffffffffffffffffffffffffffffff1602179055505b6002600b82815481101515610a5357fe5b90600052602060002001541415610adf57600a81815481101515610a7357fe5b9060005260206000200160009054906101000a900473ffffffffffffffffffffffffffffffffffffffff16600660006101000a81548173ffffffffffffffffffffffffffffffffffffffff021916908373ffffffffffffffffffffffffffffffffffffffff1602179055505b6003600b82815481101515610af057fe5b90600052602060002001541415610c24576002600f541415610b9c57600a81815481101515610b1b57fe5b9060005260206000200160009054906101000a900473ffffffffffffffffffffffffffffffffffffffff16600760006101000a81548173ffffffffffffffffffffffffffffffffffffffff021916908373ffffffffffffffffffffffffffffffffffffffff1602179055506001600f60008282540392505081905550610c23565b6001600f541415610c2257600a81815481101515610bb657fe5b9060005260206000200160009054906101000a900473ffffffffffffffffffffffffffffffffffffffff16600860006101000a81548173ffffffffffffffffffffffffffffffffffffffff021916908373ffffffffffffffffffffffffffffffffffffffff1602179055505b5b5b6004600b82815481101515610c3557fe5b90600052602060002001541415610cc157600a81815481101515610c5557fe5b9060005260206000200160009054906101000a900473ffffffffffffffffffffffffffffffffffffffff16600960006101000a81548173ffffffffffffffffffffffffffffffffffffffff021916908373ffffffffffffffffffffffffffffffffffffffff1602179055505b8080600101915050610673565b50565b6000809054906101000a900473ffffffffffffffffffffffffffffffffffffffff1681565b6000809054906101000a900473ffffffffffffffffffffffffffffffffffffffff1673ffffffffffffffffffffffffffffffffffffffff1663133a473e6040518163ffffffff167c0100000000000000000000000000000000000000000000000000000000028152600401600060405180830381600087803b158015610d7b57600080fd5b505af1158015610d8f573d6000803e3d6000fd5b50505050600160009054906101000a900473ffffffffffffffffffffffffffffffffffffffff1673ffffffffffffffffffffffffffffffffffffffff1663133a473e6040518163ffffffff167c0100000000000000000000000000000000000000000000000000000000028152600401600060405180830381600087803b158015610e1957600080fd5b505af1158015610e2d573d6000803e3d6000fd5b50505050600260009054906101000a900473ffffffffffffffffffffffffffffffffffffffff1673ffffffffffffffffffffffffffffffffffffffff1663133a473e6040518163ffffffff167c0100000000000000000000000000000000000000000000000000000000028152600401600060405180830381600087803b158015610eb757600080fd5b505af1158015610ecb573d6000803e3d6000fd5b50505050600360009054906101000a900473ffffffffffffffffffffffffffffffffffffffff1673ffffffffffffffffffffffffffffffffffffffff1663133a473e6040518163ffffffff167c0100000000000000000000000000000000000000000000000000000000028152600401600060405180830381600087803b158015610f5557600080fd5b505af1158015610f69573d6000803e3d6000fd5b50505050600460009054906101000a900473ffffffffffffffffffffffffffffffffffffffff1673ffffffffffffffffffffffffffffffffffffffff1663133a473e6040518163ffffffff167c0100000000000000000000000000000000000000000000000000000000028152600401600060405180830381600087803b158015610ff357600080fd5b505af1158015611007573d6000803e3d6000fd5b50505050600760009054906101000a900473ffffffffffffffffffffffffffffffffffffffff1673ffffffffffffffffffffffffffffffffffffffff1663133a473e6040518163ffffffff167c0100000000000000000000000000000000000000000000000000000000028152600401600060405180830381600087803b15801561109157600080fd5b505af11580156110a5573d6000803e3d6000fd5b50505050600860009054906101000a900473ffffffffffffffffffffffffffffffffffffffff1673ffffffffffffffffffffffffffffffffffffffff1663133a473e6040518163ffffffff167c0100000000000000000000000000000000000000000000000000000000028152600401600060405180830381600087803b15801561112f57600080fd5b505af1158015611143573d6000803e3d6000fd5b50505050600960009054906101000a900473ffffffffffffffffffffffffffffffffffffffff1673ffffffffffffffffffffffffffffffffffffffff1663133a473e6040518163ffffffff167c0100000000000000000000000000000000000000000000000000000000028152600401600060405180830381600087803b1580156111cd57600080fd5b505af11580156111e1573d6000803e3d6000fd5b50505050600560009054906101000a900473ffffffffffffffffffffffffffffffffffffffff1673ffffffffffffffffffffffffffffffffffffffff1663133a473e6040518163ffffffff167c0100000000000000000000000000000000000000000000000000000000028152600401600060405180830381600087803b15801561126b57600080fd5b505af115801561127f573d6000803e3d6000fd5b50505050600660009054906101000a900473ffffffffffffffffffffffffffffffffffffffff1673ffffffffffffffffffffffffffffffffffffffff1663133a473e6040518163ffffffff167c0100000000000000000000000000000000000000000000000000000000028152600401600060405180830381600087803b15801561130957600080fd5b505af115801561131d573d6000803e3d6000fd5b50505050565b60125481565b600c5481565b600260009054906101000a900473ffffffffffffffffffffffffffffffffffffffff1681565b600860009054906101000a900473ffffffffffffffffffffffffffffffffffffffff1681565b600e5481565b60115481565b600a600c54101561157557600a8190806001815401808255809150509060018203906000526020600020016000909192909190916101000a81548173ffffffffffffffffffffffffffffffffffffffff021916908373ffffffffffffffffffffffffffffffffffffffff160217905550506000600d54141561143d576001600d81905550600b60029080600181540180825580915050906001820390600052602060002001600090919290919091505550611563565b6000600e541415611482576001600e81905550600b60019080600181540180825580915050906001820390600052602060002001600090919290919091505550611562565b6002600f5410156114d0576001600f60008282540192505081905550600b60039080600181540180825580915050906001820390600052602060002001600090919290919091505550611561565b60006010541415611515576001601081905550600b60049080600181540180825580915050906001820390600052602060002001600090919290919091505550611560565b6005601154101561155f576001601160008282540192505081905550600b600090806001815401808255809150509060018203906000526020600020016000909192909190915055505b5b5b5b5b6001600c600082825401925050819055505b50565b600360009054906101000a900473ffffffffffffffffffffffffffffffffffffffff1681565b600960009054906101000a900473ffffffffffffffffffffffffffffffffffffffff1681565b600660009054906101000a900473ffffffffffffffffffffffffffffffffffffffff1681565b600560009054906101000a900473ffffffffffffffffffffffffffffffffffffffff1681565b600f5481565b60105481565b600760009054906101000a900473ffffffffffffffffffffffffffffffffffffffff16815600a165627a7a723058201665d5cd91bad7f77ac6beead2b538dd78583b3a20ad7c1d2bad594a635dbf380029",
  "source": "pragma solidity ^0.4.22;\n\nimport \"./citizen.sol\";\nimport \"./doctor.sol\";\nimport \"./kommisar.sol\";\nimport \"./mafia.sol\";\nimport \"./maniac.sol\";\n\ncontract GameSys {\n    Citizen public citizen1; Citizen public citizen2; Citizen public citizen3; Citizen public citizen4; Citizen public citizen5;\n    Doctor public doctor1;\n    Kommisar public kommisar1;\n    Mafia public mafia1; Mafia public mafia2;\n    Maniac public maniac1;\n\n   address[] players;\n   uint[] roles;\n   uint public maxPlayers = 0; // 10\n   uint public kommisar_count = 0; // 1\n   uint public doctor_count = 0; // 1\n   uint public mafia_count = 0; // 2\n   uint public maniac_count = 0; // 1\n   uint public citizen_count = 0; // 5\n   uint public turns = 0;\n   // address[] games;\n   // roles number citizen = 0, doctor = 1, kommisar = 2, mafia = 3, maniac = 4\n\n   constructor() public {\n\n   }\n\n\n   function initGame() {\n       citizen1.sleep();\n       citizen2.sleep();\n       citizen3.sleep();\n       citizen4.sleep();\n       citizen5.sleep();\n       mafia1.sleep();\n       mafia2.sleep();\n       maniac1.sleep();\n       doctor1.sleep();\n       kommisar1.sleep();\n   }\n\n   function initPlayers() public {\n       for(uint i = 0; i < 10; i++){\n           if(roles[i] == 0){\n               if(citizen_count == 5){\n                   citizen1 = Citizen(players[i]);\n                   citizen_count -=1;\n               }\n               else if(citizen_count == 4){\n                   citizen2 = Citizen(players[i]);\n                   citizen_count -=1;\n               }\n               else if(citizen_count == 3){\n                   citizen3 = Citizen(players[i]);\n                   citizen_count -=1;\n               }\n               else if(citizen_count == 2){\n                   citizen4 = Citizen(players[i]);\n                   citizen_count -=1;\n               }\n               else if(citizen_count == 1){\n                   citizen5 = Citizen(players[i]);\n                   citizen_count -=1;\n               }\n           }\n           if(roles[i] == 1){\n               doctor1 =  Doctor(players[i]);\n           }\n           if(roles[i] == 2){\n               kommisar1 = Kommisar(players[i]);\n           }\n           if(roles[i] == 3){\n               if (mafia_count == 2){\n                   mafia1 = Mafia(players[i]);\n                   mafia_count -=1;\n               }\n               else if(mafia_count == 1){\n                   mafia2 = Mafia(players[i]);\n               }\n           }\n           if(roles[i] == 4){\n               maniac1 = Maniac(players[i]);\n           }\n       }\n\n   }\n\n   function addPlayer(address player) public  {\n       if (maxPlayers < 10) {\n           players.push(player);\n           if (kommisar_count == 0 ) {\n               kommisar_count = 1;\n               roles.push(2);\n           }\n       else if (doctor_count == 0) {\n           doctor_count = 1;\n           roles.push(1);\n       }\n       else if (mafia_count < 2) {\n           mafia_count +=1;\n           roles.push(3);\n       }\n       else if(maniac_count == 0){\n           maniac_count = 1;\n           roles.push(4);\n       }\n       else if(citizen_count < 5){\n           citizen_count +=1;\n           roles.push(0);\n       }\n       maxPlayers +=1;\n       }\n   }\n\n}\n",
  "sourcePath": "/Users/nikitazaytsev/Projects/blockchain_mafia/contracts/gamesys.sol",
  "compiler": {
    "name": "solc",
    "version": "0.4.24+commit.e67f0147.Emscripten.clang"
  },
  "schemaVersion": "2.0.1",
  "updatedAt": "2018-07-17T09:21:41.905Z"
}