{
  "contractName": "Kommisar",
  "abi": [
    {
      "constant": true,
      "inputs": [],
      "name": "typeContract",
      "outputs": [
        {
          "name": "",
          "type": "uint256"
        }
      ],
      "payable": false,
      "stateMutability": "view",
      "type": "function"
    },
    {
      "constant": true,
      "inputs": [],
      "name": "isDead",
      "outputs": [
        {
          "name": "",
          "type": "bool"
        }
      ],
      "payable": false,
      "stateMutability": "view",
      "type": "function"
    },
    {
      "constant": true,
      "inputs": [],
      "name": "isSleeping",
      "outputs": [
        {
          "name": "",
          "type": "bool"
        }
      ],
      "payable": false,
      "stateMutability": "view",
      "type": "function"
    },
    {
      "constant": true,
      "inputs": [],
      "name": "votes",
      "outputs": [
        {
          "name": "",
          "type": "uint256"
        }
      ],
      "payable": false,
      "stateMutability": "view",
      "type": "function"
    },
    {
      "inputs": [],
      "payable": false,
      "stateMutability": "nonpayable",
      "type": "constructor"
    },
    {
      "constant": false,
      "inputs": [],
      "name": "die",
      "outputs": [],
      "payable": false,
      "stateMutability": "nonpayable",
      "type": "function"
    },
    {
      "constant": false,
      "inputs": [],
      "name": "heal",
      "outputs": [],
      "payable": false,
      "stateMutability": "nonpayable",
      "type": "function"
    },
    {
      "constant": false,
      "inputs": [],
      "name": "addVote",
      "outputs": [],
      "payable": false,
      "stateMutability": "nonpayable",
      "type": "function"
    },
    {
      "constant": false,
      "inputs": [],
      "name": "sleep",
      "outputs": [],
      "payable": false,
      "stateMutability": "nonpayable",
      "type": "function"
    },
    {
      "constant": false,
      "inputs": [],
      "name": "stopSleep",
      "outputs": [],
      "payable": false,
      "stateMutability": "nonpayable",
      "type": "function"
    },
    {
      "constant": false,
      "inputs": [],
      "name": "getVotes",
      "outputs": [
        {
          "name": "",
          "type": "uint256"
        }
      ],
      "payable": false,
      "stateMutability": "nonpayable",
      "type": "function"
    },
    {
      "constant": false,
      "inputs": [
        {
          "name": "addr",
          "type": "address"
        },
        {
          "name": "typeContr",
          "type": "uint256"
        }
      ],
      "name": "kill",
      "outputs": [],
      "payable": false,
      "stateMutability": "nonpayable",
      "type": "function"
    },
    {
      "constant": true,
      "inputs": [
        {
          "name": "addr",
          "type": "address"
        },
        {
          "name": "typeContr",
          "type": "uint256"
        }
      ],
      "name": "check",
      "outputs": [
        {
          "name": "",
          "type": "uint256"
        }
      ],
      "payable": false,
      "stateMutability": "view",
      "type": "function"
    },
    {
      "constant": false,
      "inputs": [
        {
          "name": "addr",
          "type": "address"
        },
        {
          "name": "typeContr",
          "type": "uint256"
        }
      ],
      "name": "vote",
      "outputs": [],
      "payable": false,
      "stateMutability": "nonpayable",
      "type": "function"
    }
  ],
  "bytecode": "0x608060405234801561001057600080fd5b5060008060006101000a81548160ff0219169083151502179055506000600260006101000a81548160ff021916908315150217905550600060018190555061098b8061005d6000396000f3006080604052600436106100c5576000357c0100000000000000000000000000000000000000000000000000000000900463ffffffff1680630434fe0b146100ca5780630dc96015146100e1578063133a473e1461010c57806335f4699414610123578063401664461461013a578063487edff2146101515780635f74bbde1461017c57806392707802146101c957806396fb72171461021657806399baa10c14610277578063b5e3909e146102a6578063cb063852146102bd578063e168c3ec146102ec575b600080fd5b3480156100d657600080fd5b506100df610317565b005b3480156100ed57600080fd5b506100f6610333565b6040518082815260200191505060405180910390f35b34801561011857600080fd5b5061012161033d565b005b34801561012f57600080fd5b5061013861035a565b005b34801561014657600080fd5b5061014f610376565b005b34801561015d57600080fd5b50610166610393565b6040518082815260200191505060405180910390f35b34801561018857600080fd5b506101c7600480360381019080803573ffffffffffffffffffffffffffffffffffffffff16906020019092919080359060200190929190505050610398565b005b3480156101d557600080fd5b50610214600480360381019080803573ffffffffffffffffffffffffffffffffffffffff1690602001909291908035906020019092919050505061064e565b005b34801561022257600080fd5b50610261600480360381019080803573ffffffffffffffffffffffffffffffffffffffff16906020019092919080359060200190929190505050610904565b6040518082815260200191505060405180910390f35b34801561028357600080fd5b5061028c610922565b604051808215151515815260200191505060405180910390f35b3480156102b257600080fd5b506102bb610934565b005b3480156102c957600080fd5b506102d2610946565b604051808215151515815260200191505060405180910390f35b3480156102f857600080fd5b50610301610959565b6040518082815260200191505060405180910390f35b60008060006101000a81548160ff021916908315150217905550565b6000600154905090565b6001600260006101000a81548160ff021916908315150217905550565b60016000806101000a81548160ff021916908315150217905550565b6000600260006101000a81548160ff021916908315150217905550565b600281565b6000811415610422578173ffffffffffffffffffffffffffffffffffffffff1663b5e3909e6040518163ffffffff167c0100000000000000000000000000000000000000000000000000000000028152600401600060405180830381600087803b15801561040557600080fd5b505af1158015610419573d6000803e3d6000fd5b5050505061064a565b60018114156104ac578173ffffffffffffffffffffffffffffffffffffffff1663b5e3909e6040518163ffffffff167c0100000000000000000000000000000000000000000000000000000000028152600401600060405180830381600087803b15801561048f57600080fd5b505af11580156104a3573d6000803e3d6000fd5b50505050610649565b6002811415610536578173ffffffffffffffffffffffffffffffffffffffff1663b5e3909e6040518163ffffffff167c0100000000000000000000000000000000000000000000000000000000028152600401600060405180830381600087803b15801561051957600080fd5b505af115801561052d573d6000803e3d6000fd5b50505050610648565b60038114156105c0578173ffffffffffffffffffffffffffffffffffffffff1663b5e3909e6040518163ffffffff167c0100000000000000000000000000000000000000000000000000000000028152600401600060405180830381600087803b1580156105a357600080fd5b505af11580156105b7573d6000803e3d6000fd5b50505050610647565b6004811415610646578173ffffffffffffffffffffffffffffffffffffffff1663b5e3909e6040518163ffffffff167c0100000000000000000000000000000000000000000000000000000000028152600401600060405180830381600087803b15801561062d57600080fd5b505af1158015610641573d6000803e3d6000fd5b505050505b5b5b5b5b5050565b60008114156106d8578173ffffffffffffffffffffffffffffffffffffffff166335f469946040518163ffffffff167c0100000000000000000000000000000000000000000000000000000000028152600401600060405180830381600087803b1580156106bb57600080fd5b505af11580156106cf573d6000803e3d6000fd5b50505050610900565b6001811415610762578173ffffffffffffffffffffffffffffffffffffffff166335f469946040518163ffffffff167c0100000000000000000000000000000000000000000000000000000000028152600401600060405180830381600087803b15801561074557600080fd5b505af1158015610759573d6000803e3d6000fd5b505050506108ff565b60028114156107ec578173ffffffffffffffffffffffffffffffffffffffff166335f469946040518163ffffffff167c0100000000000000000000000000000000000000000000000000000000028152600401600060405180830381600087803b1580156107cf57600080fd5b505af11580156107e3573d6000803e3d6000fd5b505050506108fe565b6003811415610876578173ffffffffffffffffffffffffffffffffffffffff166335f469946040518163ffffffff167c0100000000000000000000000000000000000000000000000000000000028152600401600060405180830381600087803b15801561085957600080fd5b505af115801561086d573d6000803e3d6000fd5b505050506108fd565b60048114156108fc578173ffffffffffffffffffffffffffffffffffffffff166335f469946040518163ffffffff167c0100000000000000000000000000000000000000000000000000000000028152600401600060405180830381600087803b1580156108e357600080fd5b505af11580156108f7573d6000803e3d6000fd5b505050505b5b5b5b5b5050565b60006004821415610918576000905061091c565b8190505b92915050565b6000809054906101000a900460ff1681565b60018060008282540192505081905550565b600260009054906101000a900460ff1681565b600154815600a165627a7a723058205b96d3f7601357af6f028c548363e58e83b8c127ba32932e661cd12886fe86a60029",
  "source": "pragma solidity ^0.4.22;\r\n\r\nimport \"./citizen.sol\";\r\nimport \"./doctor.sol\";\r\nimport \"./mafia.sol\";\r\nimport \"./maniac.sol\";\r\n\r\ncontract Kommisar {\r\n    bool public isDead;\r\n    uint public votes;\r\n    bool public isSleeping;\r\n    uint public constant typeContract = 2; // citizen = 0, doctor = 1, kommisar = 2, mafia = 3, maniac = 4\r\n\r\n    constructor() public {\r\n        isDead = false;\r\n        isSleeping = false;\r\n        votes = 0;\r\n    }\r\n\r\n    function die() {\r\n      isDead = true;\r\n    }\r\n    function heal() {\r\n      isDead = false;\r\n    }\r\n\r\n    function addVote() public {\r\n        votes += 1;\r\n    }\r\n\r\n    function sleep() public {\r\n        isSleeping = true;\r\n    }\r\n\r\n    function stopSleep() public{\r\n        isSleeping = false;\r\n    }\r\n\r\n    function getVotes() public returns (uint){\r\n        return votes;\r\n    }\r\n\r\n    function kill(address addr, uint typeContr){\r\n      if (typeContr == 0){\r\n         Citizen(addr).die();\r\n      }\r\n      else if (typeContr == 1){\r\n         Doctor(addr).die();\r\n      }\r\n      else if (typeContr == 2){\r\n        Kommisar(addr).die();\r\n      }\r\n      else if (typeContr == 3){\r\n         Mafia(addr).die();\r\n      }\r\n      else if (typeContr == 4){\r\n         Maniac(addr).die();\r\n      }\r\n    }\r\n\r\n    function check(address addr, uint typeContr) public view returns (uint) {\r\n      if (typeContr == 4){\r\n        return 0;\r\n      }\r\n      return typeContr;\r\n    }\r\n\r\n    function vote(address addr, uint typeContr) public {\r\n        if (typeContr == 0){\r\n            Citizen(addr).addVote();\r\n        }\r\n        else if (typeContr == 1){\r\n            Doctor(addr).addVote();//remake\r\n        }\r\n        else if (typeContr == 2){\r\n            Kommisar(addr).addVote();\r\n        }\r\n        else if (typeContr == 3){\r\n            Mafia(addr).addVote();//remake\r\n        }\r\n        else if (typeContr == 4){\r\n            Maniac(addr).addVote();//remake\r\n        }\r\n    }\r\n\r\n}\r\n",
  "sourcePath": "/Users/nikitazaytsev/Projects/blockchain_mafia/contracts/kommisar.sol",
  "compiler": {
    "name": "solc",
    "version": "0.4.24+commit.e67f0147.Emscripten.clang"
  },
  "schemaVersion": "2.0.1",
  "updatedAt": "2018-07-16T13:33:01.387Z"
}