{
  "contractName": "Mafia",
  "abi": [
    {
      "constant": true,
      "inputs": [],
      "name": "typeContract",
      "outputs": [
        {
          "name": "",
          "type": "uint256"
        }
      ],
      "payable": false,
      "stateMutability": "view",
      "type": "function"
    },
    {
      "constant": true,
      "inputs": [],
      "name": "isDead",
      "outputs": [
        {
          "name": "",
          "type": "bool"
        }
      ],
      "payable": false,
      "stateMutability": "view",
      "type": "function"
    },
    {
      "constant": true,
      "inputs": [],
      "name": "isSleeping",
      "outputs": [
        {
          "name": "",
          "type": "bool"
        }
      ],
      "payable": false,
      "stateMutability": "view",
      "type": "function"
    },
    {
      "constant": true,
      "inputs": [],
      "name": "votes",
      "outputs": [
        {
          "name": "",
          "type": "uint256"
        }
      ],
      "payable": false,
      "stateMutability": "view",
      "type": "function"
    },
    {
      "inputs": [],
      "payable": false,
      "stateMutability": "nonpayable",
      "type": "constructor"
    },
    {
      "constant": false,
      "inputs": [],
      "name": "addVote",
      "outputs": [],
      "payable": false,
      "stateMutability": "nonpayable",
      "type": "function"
    },
    {
      "constant": false,
      "inputs": [],
      "name": "die",
      "outputs": [],
      "payable": false,
      "stateMutability": "nonpayable",
      "type": "function"
    },
    {
      "constant": false,
      "inputs": [],
      "name": "heal",
      "outputs": [],
      "payable": false,
      "stateMutability": "nonpayable",
      "type": "function"
    },
    {
      "constant": false,
      "inputs": [],
      "name": "sleep",
      "outputs": [],
      "payable": false,
      "stateMutability": "nonpayable",
      "type": "function"
    },
    {
      "constant": false,
      "inputs": [],
      "name": "stopSleep",
      "outputs": [],
      "payable": false,
      "stateMutability": "nonpayable",
      "type": "function"
    },
    {
      "constant": true,
      "inputs": [],
      "name": "getVotes",
      "outputs": [
        {
          "name": "",
          "type": "uint256"
        }
      ],
      "payable": false,
      "stateMutability": "view",
      "type": "function"
    },
    {
      "constant": false,
      "inputs": [
        {
          "name": "addr",
          "type": "address"
        },
        {
          "name": "typeContr",
          "type": "uint256"
        }
      ],
      "name": "kill",
      "outputs": [],
      "payable": false,
      "stateMutability": "nonpayable",
      "type": "function"
    },
    {
      "constant": false,
      "inputs": [
        {
          "name": "addr",
          "type": "address"
        },
        {
          "name": "typeContr",
          "type": "uint256"
        }
      ],
      "name": "vote",
      "outputs": [],
      "payable": false,
      "stateMutability": "nonpayable",
      "type": "function"
    }
  ],
  "bytecode": "0x608060405234801561001057600080fd5b5060008060006101000a81548160ff0219169083151502179055506000600260006101000a81548160ff02191690831515021790555060006001819055506109018061005d6000396000f3006080604052600436106100ba576000357c0100000000000000000000000000000000000000000000000000000000900463ffffffff1680630434fe0b146100bf5780630dc96015146100d6578063133a473e1461010157806335f4699414610118578063401664461461012f578063487edff2146101465780635f74bbde1461017157806392707802146101be57806399baa10c1461020b578063b5e3909e1461023a578063cb06385214610251578063e168c3ec14610280575b600080fd5b3480156100cb57600080fd5b506100d46102ab565b005b3480156100e257600080fd5b506100eb6102c7565b6040518082815260200191505060405180910390f35b34801561010d57600080fd5b506101166102d1565b005b34801561012457600080fd5b5061012d6102ee565b005b34801561013b57600080fd5b5061014461030a565b005b34801561015257600080fd5b5061015b610327565b6040518082815260200191505060405180910390f35b34801561017d57600080fd5b506101bc600480360381019080803573ffffffffffffffffffffffffffffffffffffffff1690602001909291908035906020019092919050505061032c565b005b3480156101ca57600080fd5b50610209600480360381019080803573ffffffffffffffffffffffffffffffffffffffff169060200190929190803590602001909291905050506105e2565b005b34801561021757600080fd5b50610220610898565b604051808215151515815260200191505060405180910390f35b34801561024657600080fd5b5061024f6108aa565b005b34801561025d57600080fd5b506102666108bc565b604051808215151515815260200191505060405180910390f35b34801561028c57600080fd5b506102956108cf565b6040518082815260200191505060405180910390f35b60008060006101000a81548160ff021916908315150217905550565b6000600154905090565b6001600260006101000a81548160ff021916908315150217905550565b60016000806101000a81548160ff021916908315150217905550565b6000600260006101000a81548160ff021916908315150217905550565b600381565b60008114156103b6578173ffffffffffffffffffffffffffffffffffffffff1663b5e3909e6040518163ffffffff167c0100000000000000000000000000000000000000000000000000000000028152600401600060405180830381600087803b15801561039957600080fd5b505af11580156103ad573d6000803e3d6000fd5b505050506105de565b6001811415610440578173ffffffffffffffffffffffffffffffffffffffff1663b5e3909e6040518163ffffffff167c0100000000000000000000000000000000000000000000000000000000028152600401600060405180830381600087803b15801561042357600080fd5b505af1158015610437573d6000803e3d6000fd5b505050506105dd565b60028114156104ca578173ffffffffffffffffffffffffffffffffffffffff1663b5e3909e6040518163ffffffff167c0100000000000000000000000000000000000000000000000000000000028152600401600060405180830381600087803b1580156104ad57600080fd5b505af11580156104c1573d6000803e3d6000fd5b505050506105dc565b6003811415610554578173ffffffffffffffffffffffffffffffffffffffff1663b5e3909e6040518163ffffffff167c0100000000000000000000000000000000000000000000000000000000028152600401600060405180830381600087803b15801561053757600080fd5b505af115801561054b573d6000803e3d6000fd5b505050506105db565b60048114156105da578173ffffffffffffffffffffffffffffffffffffffff1663b5e3909e6040518163ffffffff167c0100000000000000000000000000000000000000000000000000000000028152600401600060405180830381600087803b1580156105c157600080fd5b505af11580156105d5573d6000803e3d6000fd5b505050505b5b5b5b5b5050565b600081141561066c578173ffffffffffffffffffffffffffffffffffffffff166335f469946040518163ffffffff167c0100000000000000000000000000000000000000000000000000000000028152600401600060405180830381600087803b15801561064f57600080fd5b505af1158015610663573d6000803e3d6000fd5b50505050610894565b60018114156106f6578173ffffffffffffffffffffffffffffffffffffffff166335f469946040518163ffffffff167c0100000000000000000000000000000000000000000000000000000000028152600401600060405180830381600087803b1580156106d957600080fd5b505af11580156106ed573d6000803e3d6000fd5b50505050610893565b6002811415610780578173ffffffffffffffffffffffffffffffffffffffff166335f469946040518163ffffffff167c0100000000000000000000000000000000000000000000000000000000028152600401600060405180830381600087803b15801561076357600080fd5b505af1158015610777573d6000803e3d6000fd5b50505050610892565b600381141561080a578173ffffffffffffffffffffffffffffffffffffffff166335f469946040518163ffffffff167c0100000000000000000000000000000000000000000000000000000000028152600401600060405180830381600087803b1580156107ed57600080fd5b505af1158015610801573d6000803e3d6000fd5b50505050610891565b6004811415610890578173ffffffffffffffffffffffffffffffffffffffff166335f469946040518163ffffffff167c0100000000000000000000000000000000000000000000000000000000028152600401600060405180830381600087803b15801561087757600080fd5b505af115801561088b573d6000803e3d6000fd5b505050505b5b5b5b5b5050565b6000809054906101000a900460ff1681565b60018060008282540192505081905550565b600260009054906101000a900460ff1681565b600154815600a165627a7a723058203aeb8c440fae725d252a0f7b743a9444ac07bea451641020d3aadb341e08a5610029",
  "source": "pragma solidity ^0.4.22;\n\nimport \"./citizen.sol\";\nimport \"./doctor.sol\";\nimport \"./kommisar.sol\";\nimport \"./maniac.sol\";\n\ncontract Mafia {\n  bool public isDead;\n  uint public votes;\n  bool public isSleeping;\n\n  uint public constant typeContract = 3; // citizen = 0, doctor = 1, kommisar = 2, mafia = 3, maniac = 4;\n\n  constructor() public {\n    isDead = false;\n    isSleeping = false;\n    votes = 0;\n  }\n  function addVote() {\n    votes += 1;\n  }\n  function die() {\n    isDead = true;\n  }\n  function heal() {\n    isDead = false;\n  }\n\n  function sleep() {\n    isSleeping = true;\n  }\n\n  function stopSleep() {\n    isSleeping = false;\n  }\n\n  function getVotes() public view returns (uint) {\n    return votes;\n  }\n\n  function kill(address addr, uint typeContr){\n    if (typeContr == 0){\n       Citizen(addr).die();\n    }\n    else if (typeContr == 1){\n       Doctor(addr).die();\n    }\n    else if (typeContr == 2){\n      Kommisar(addr).die();\n    }\n    else if (typeContr == 3){\n       Mafia(addr).die();\n    }\n    else if (typeContr == 4){\n       Maniac(addr).die();\n    }\n  }\n\n  function vote(address addr, uint typeContr) {\n    if (typeContr == 0){\n       Citizen(addr).addVote();\n    }\n    else if (typeContr == 1){\n       Doctor(addr).addVote();//remake\n    }\n    else if (typeContr == 2){\n      Kommisar(addr).addVote();\n    }\n    else if (typeContr == 3){\n       Mafia(addr).addVote();//remake\n    }\n    else if (typeContr == 4){\n       Maniac(addr).addVote();//remake\n    }\n\n  }\n}\n",
  "sourcePath": "/Users/nikitazaytsev/Projects/blockchain_mafia/contracts/mafia.sol",
  "compiler": {
    "name": "solc",
    "version": "0.4.24+commit.e67f0147.Emscripten.clang"
  },
  "schemaVersion": "2.0.1",
  "updatedAt": "2018-07-17T07:39:10.704Z"
}