{
  "contractName": "Maniac",
  "abi": [
    {
      "constant": true,
      "inputs": [],
      "name": "typeContract",
      "outputs": [
        {
          "name": "",
          "type": "uint256"
        }
      ],
      "payable": false,
      "stateMutability": "view",
      "type": "function"
    },
    {
      "constant": true,
      "inputs": [],
      "name": "isDead",
      "outputs": [
        {
          "name": "",
          "type": "bool"
        }
      ],
      "payable": false,
      "stateMutability": "view",
      "type": "function"
    },
    {
      "constant": true,
      "inputs": [],
      "name": "votes",
      "outputs": [
        {
          "name": "",
          "type": "uint256"
        }
      ],
      "payable": false,
      "stateMutability": "view",
      "type": "function"
    },
    {
      "inputs": [],
      "payable": false,
      "stateMutability": "nonpayable",
      "type": "constructor"
    },
    {
      "constant": false,
      "inputs": [],
      "name": "die",
      "outputs": [],
      "payable": false,
      "stateMutability": "nonpayable",
      "type": "function"
    },
    {
      "constant": false,
      "inputs": [],
      "name": "heal",
      "outputs": [],
      "payable": false,
      "stateMutability": "nonpayable",
      "type": "function"
    },
    {
      "constant": false,
      "inputs": [],
      "name": "addVote",
      "outputs": [],
      "payable": false,
      "stateMutability": "nonpayable",
      "type": "function"
    },
    {
      "constant": false,
      "inputs": [],
      "name": "sleep",
      "outputs": [],
      "payable": false,
      "stateMutability": "nonpayable",
      "type": "function"
    },
    {
      "constant": false,
      "inputs": [],
      "name": "stopSleep",
      "outputs": [],
      "payable": false,
      "stateMutability": "nonpayable",
      "type": "function"
    },
    {
      "constant": false,
      "inputs": [],
      "name": "getVotes",
      "outputs": [
        {
          "name": "",
          "type": "uint256"
        }
      ],
      "payable": false,
      "stateMutability": "nonpayable",
      "type": "function"
    },
    {
      "constant": false,
      "inputs": [
        {
          "name": "addr",
          "type": "address"
        },
        {
          "name": "typeContr",
          "type": "uint256"
        }
      ],
      "name": "kill",
      "outputs": [],
      "payable": false,
      "stateMutability": "nonpayable",
      "type": "function"
    },
    {
      "constant": false,
      "inputs": [
        {
          "name": "addr",
          "type": "address"
        },
        {
          "name": "typeContr",
          "type": "uint256"
        }
      ],
      "name": "vote",
      "outputs": [],
      "payable": false,
      "stateMutability": "nonpayable",
      "type": "function"
    }
  ],
  "bytecode": "0x608060405234801561001057600080fd5b5060008060006101000a81548160ff0219169083151502179055506000600260006101000a81548160ff02191690831515021790555060006001819055506108b48061005d6000396000f3006080604052600436106100af576000357c0100000000000000000000000000000000000000000000000000000000900463ffffffff1680630434fe0b146100b45780630dc96015146100cb578063133a473e146100f657806335f469941461010d5780634016644614610124578063487edff21461013b5780635f74bbde1461016657806392707802146101b357806399baa10c14610200578063b5e3909e1461022f578063e168c3ec14610246575b600080fd5b3480156100c057600080fd5b506100c9610271565b005b3480156100d757600080fd5b506100e061028d565b6040518082815260200191505060405180910390f35b34801561010257600080fd5b5061010b610297565b005b34801561011957600080fd5b506101226102b4565b005b34801561013057600080fd5b506101396102d0565b005b34801561014757600080fd5b506101506102ed565b6040518082815260200191505060405180910390f35b34801561017257600080fd5b506101b1600480360381019080803573ffffffffffffffffffffffffffffffffffffffff169060200190929190803590602001909291905050506102f2565b005b3480156101bf57600080fd5b506101fe600480360381019080803573ffffffffffffffffffffffffffffffffffffffff169060200190929190803590602001909291905050506105a8565b005b34801561020c57600080fd5b5061021561085e565b604051808215151515815260200191505060405180910390f35b34801561023b57600080fd5b50610244610870565b005b34801561025257600080fd5b5061025b610882565b6040518082815260200191505060405180910390f35b60008060006101000a81548160ff021916908315150217905550565b6000600154905090565b6001600260006101000a81548160ff021916908315150217905550565b60016000806101000a81548160ff021916908315150217905550565b6000600260006101000a81548160ff021916908315150217905550565b600481565b600081141561037c578173ffffffffffffffffffffffffffffffffffffffff1663b5e3909e6040518163ffffffff167c0100000000000000000000000000000000000000000000000000000000028152600401600060405180830381600087803b15801561035f57600080fd5b505af1158015610373573d6000803e3d6000fd5b505050506105a4565b6001811415610406578173ffffffffffffffffffffffffffffffffffffffff1663b5e3909e6040518163ffffffff167c0100000000000000000000000000000000000000000000000000000000028152600401600060405180830381600087803b1580156103e957600080fd5b505af11580156103fd573d6000803e3d6000fd5b505050506105a3565b6002811415610490578173ffffffffffffffffffffffffffffffffffffffff1663b5e3909e6040518163ffffffff167c0100000000000000000000000000000000000000000000000000000000028152600401600060405180830381600087803b15801561047357600080fd5b505af1158015610487573d6000803e3d6000fd5b505050506105a2565b600381141561051a578173ffffffffffffffffffffffffffffffffffffffff1663b5e3909e6040518163ffffffff167c0100000000000000000000000000000000000000000000000000000000028152600401600060405180830381600087803b1580156104fd57600080fd5b505af1158015610511573d6000803e3d6000fd5b505050506105a1565b60048114156105a0578173ffffffffffffffffffffffffffffffffffffffff1663b5e3909e6040518163ffffffff167c0100000000000000000000000000000000000000000000000000000000028152600401600060405180830381600087803b15801561058757600080fd5b505af115801561059b573d6000803e3d6000fd5b505050505b5b5b5b5b5050565b6000811415610632578173ffffffffffffffffffffffffffffffffffffffff166335f469946040518163ffffffff167c0100000000000000000000000000000000000000000000000000000000028152600401600060405180830381600087803b15801561061557600080fd5b505af1158015610629573d6000803e3d6000fd5b5050505061085a565b60018114156106bc578173ffffffffffffffffffffffffffffffffffffffff166335f469946040518163ffffffff167c0100000000000000000000000000000000000000000000000000000000028152600401600060405180830381600087803b15801561069f57600080fd5b505af11580156106b3573d6000803e3d6000fd5b50505050610859565b6002811415610746578173ffffffffffffffffffffffffffffffffffffffff166335f469946040518163ffffffff167c0100000000000000000000000000000000000000000000000000000000028152600401600060405180830381600087803b15801561072957600080fd5b505af115801561073d573d6000803e3d6000fd5b50505050610858565b60038114156107d0578173ffffffffffffffffffffffffffffffffffffffff166335f469946040518163ffffffff167c0100000000000000000000000000000000000000000000000000000000028152600401600060405180830381600087803b1580156107b357600080fd5b505af11580156107c7573d6000803e3d6000fd5b50505050610857565b6004811415610856578173ffffffffffffffffffffffffffffffffffffffff166335f469946040518163ffffffff167c0100000000000000000000000000000000000000000000000000000000028152600401600060405180830381600087803b15801561083d57600080fd5b505af1158015610851573d6000803e3d6000fd5b505050505b5b5b5b5b5050565b6000809054906101000a900460ff1681565b60018060008282540192505081905550565b600154815600a165627a7a72305820fbe7a49a67a06c41869d4e1ed36dde03e915d219b9a2543dbea32a58e57cb6e80029",
  "source": "pragma solidity ^0.4.22;\n\nimport \"./citizen.sol\";\nimport \"./doctor.sol\";\nimport \"./kommisar.sol\";\nimport \"./mafia.sol\";\n\ncontract Maniac {\n  bool public isDead;\n  uint public votes;\n  bool private isSleeping;\n\n  uint public constant typeContract = 4; // citizen = 0, doctor = 1, kommisar = 2, mafia = 3, maniac = 4;\n  constructor() public {\n    isDead = false;\n    isSleeping = false;\n    votes = 0;\n  }\n\n  function die() {\n    isDead = true;\n  }\n\n  function heal() {\n    isDead = false;\n  }\n\n  function addVote() {\n    votes += 1;\n  }\n\n  function sleep() {\n    isSleeping = true;\n  }\n\n  function stopSleep() {\n    isSleeping = false;\n  }\n\n  function getVotes() returns (uint) {\n    return votes;\n  }\n\n  function kill(address addr, uint typeContr){\n    if (typeContr == 0){\n       Citizen(addr).die();\n    }\n    else if (typeContr == 1){\n       Doctor(addr).die();\n    }\n    else if (typeContr == 2){\n      Kommisar(addr).die();\n    }\n    else if (typeContr == 3){\n       Mafia(addr).die();\n    }\n    else if (typeContr == 4){\n       Maniac(addr).die();\n    }\n  }\n\n  function vote(address addr, uint typeContr) {\n    if (typeContr == 0){\n       Citizen(addr).addVote();\n    }\n    else if (typeContr == 1){\n       Doctor(addr).addVote();//remake\n    }\n\n    else if (typeContr == 2){\n       Kommisar(addr).addVote();\n    }\n    else if (typeContr == 3){\n       Mafia(addr).addVote();//remake\n    }\n    else if (typeContr == 4){\n       Maniac(addr).addVote();//remake\n    }\n\n  }\n}\n",
  "sourcePath": "/Users/nikitazaytsev/Projects/blockchain_mafia/contracts/maniac.sol",
  "compiler": {
    "name": "solc",
    "version": "0.4.24+commit.e67f0147.Emscripten.clang"
  },
  "schemaVersion": "2.0.1",
  "updatedAt": "2018-07-16T10:18:02.796Z"
}